{
	"contracts/basic.sol": {
		"Farmer": {
			"abi": [
				{
					"inputs": [
						{
							"internalType": "string",
							"name": "_name",
							"type": "string"
						},
						{
							"internalType": "uint256",
							"name": "_order",
							"type": "uint256"
						},
						{
							"internalType": "uint256",
							"name": "phone",
							"type": "uint256"
						}
					],
					"name": "addOrder",
					"outputs": [],
					"stateMutability": "nonpayable",
					"type": "function"
				},
				{
					"inputs": [
						{
							"internalType": "string",
							"name": "",
							"type": "string"
						}
					],
					"name": "combine",
					"outputs": [
						{
							"internalType": "uint256",
							"name": "",
							"type": "uint256"
						}
					],
					"stateMutability": "view",
					"type": "function"
				},
				{
					"inputs": [
						{
							"internalType": "uint256",
							"name": "",
							"type": "uint256"
						}
					],
					"name": "person",
					"outputs": [
						{
							"internalType": "string",
							"name": "name",
							"type": "string"
						},
						{
							"internalType": "uint256",
							"name": "phno",
							"type": "uint256"
						},
						{
							"internalType": "uint256",
							"name": "order",
							"type": "uint256"
						},
						{
							"internalType": "uint256",
							"name": "price",
							"type": "uint256"
						}
					],
					"stateMutability": "view",
					"type": "function"
				}
			],
			"devdoc": {
				"kind": "dev",
				"methods": {},
				"version": 1
			},
			"evm": {
				"assembly": "    /* \"contracts/basic.sol\":60:540  contract Farmer{... */\n  mstore(0x40, 0x80)\n    /* \"contracts/basic.sol\":95:96  8 */\n  0x08\n    /* \"contracts/basic.sol\":82:96  uint256 rate=8 */\n  0x00\n  sstore\n    /* \"contracts/basic.sol\":60:540  contract Farmer{... */\n  callvalue\n  dup1\n  iszero\n  tag_1\n  jumpi\n  0x00\n  dup1\n  revert\ntag_1:\n  pop\n  dataSize(sub_0)\n  dup1\n  dataOffset(sub_0)\n  0x00\n  codecopy\n  0x00\n  return\nstop\n\nsub_0: assembly {\n        /* \"contracts/basic.sol\":60:540  contract Farmer{... */\n      mstore(0x40, 0x80)\n      callvalue\n      dup1\n      iszero\n      tag_1\n      jumpi\n      0x00\n      dup1\n      revert\n    tag_1:\n      pop\n      jumpi(tag_2, lt(calldatasize, 0x04))\n      shr(0xe0, calldataload(0x00))\n      dup1\n      0x092a1820\n      eq\n      tag_3\n      jumpi\n      dup1\n      0x608c6b44\n      eq\n      tag_4\n      jumpi\n      dup1\n      0xe8aab4d1\n      eq\n      tag_5\n      jumpi\n    tag_2:\n      0x00\n      dup1\n      revert\n        /* \"contracts/basic.sol\":303:326  details[] public person */\n    tag_3:\n      tag_6\n      0x04\n      dup1\n      calldatasize\n      sub\n      dup2\n      add\n      swap1\n      tag_7\n      swap2\n      swap1\n      tag_8\n      jump\t// in\n    tag_7:\n      tag_9\n      jump\t// in\n    tag_6:\n      mload(0x40)\n      tag_10\n      swap5\n      swap4\n      swap3\n      swap2\n      swap1\n      tag_11\n      jump\t// in\n    tag_10:\n      mload(0x40)\n      dup1\n      swap2\n      sub\n      swap1\n      return\n        /* \"contracts/basic.sol\":335:537  function addOrder(string memory _name,uint256 _order,uint phone ) public{... */\n    tag_4:\n      tag_12\n      0x04\n      dup1\n      calldatasize\n      sub\n      dup2\n      add\n      swap1\n      tag_13\n      swap2\n      swap1\n      tag_14\n      jump\t// in\n    tag_13:\n      tag_15\n      jump\t// in\n    tag_12:\n      stop\n        /* \"contracts/basic.sol\":253:294  mapping(string => uint256) public combine */\n    tag_5:\n      tag_16\n      0x04\n      dup1\n      calldatasize\n      sub\n      dup2\n      add\n      swap1\n      tag_17\n      swap2\n      swap1\n      tag_18\n      jump\t// in\n    tag_17:\n      tag_19\n      jump\t// in\n    tag_16:\n      mload(0x40)\n      tag_20\n      swap2\n      swap1\n      tag_21\n      jump\t// in\n    tag_20:\n      mload(0x40)\n      dup1\n      swap2\n      sub\n      swap1\n      return\n        /* \"contracts/basic.sol\":303:326  details[] public person */\n    tag_9:\n      0x04\n      dup2\n      dup2\n      sload\n      dup2\n      lt\n      tag_22\n      jumpi\n      0x00\n      dup1\n      revert\n    tag_22:\n      swap1\n      0x00\n      mstore\n      keccak256(0x00, 0x20)\n      swap1\n      0x04\n      mul\n      add\n      0x00\n      swap2\n      pop\n      swap1\n      pop\n      dup1\n      0x00\n      add\n      dup1\n      sload\n      tag_24\n      swap1\n      tag_25\n      jump\t// in\n    tag_24:\n      dup1\n      0x1f\n      add\n      0x20\n      dup1\n      swap2\n      div\n      mul\n      0x20\n      add\n      mload(0x40)\n      swap1\n      dup2\n      add\n      0x40\n      mstore\n      dup1\n      swap3\n      swap2\n      swap1\n      dup2\n      dup2\n      mstore\n      0x20\n      add\n      dup3\n      dup1\n      sload\n      tag_26\n      swap1\n      tag_25\n      jump\t// in\n    tag_26:\n      dup1\n      iszero\n      tag_27\n      jumpi\n      dup1\n      0x1f\n      lt\n      tag_28\n      jumpi\n      0x0100\n      dup1\n      dup4\n      sload\n      div\n      mul\n      dup4\n      mstore\n      swap2\n      0x20\n      add\n      swap2\n      jump(tag_27)\n    tag_28:\n      dup3\n      add\n      swap2\n      swap1\n      0x00\n      mstore\n      keccak256(0x00, 0x20)\n      swap1\n    tag_29:\n      dup2\n      sload\n      dup2\n      mstore\n      swap1\n      0x01\n      add\n      swap1\n      0x20\n      add\n      dup1\n      dup4\n      gt\n      tag_29\n      jumpi\n      dup3\n      swap1\n      sub\n      0x1f\n      and\n      dup3\n      add\n      swap2\n    tag_27:\n      pop\n      pop\n      pop\n      pop\n      pop\n      swap1\n      dup1\n      0x01\n      add\n      sload\n      swap1\n      dup1\n      0x02\n      add\n      sload\n      swap1\n      dup1\n      0x03\n      add\n      sload\n      swap1\n      pop\n      dup5\n      jump\t// out\n        /* \"contracts/basic.sol\":335:537  function addOrder(string memory _name,uint256 _order,uint phone ) public{... */\n    tag_15:\n        /* \"contracts/basic.sol\":418:429  uint256 tot */\n      0x00\n        /* \"contracts/basic.sol\":439:443  rate */\n      dup1\n      sload\n        /* \"contracts/basic.sol\":432:438  _order */\n      dup4\n        /* \"contracts/basic.sol\":432:443  _order*rate */\n      tag_31\n      swap2\n      swap1\n      tag_32\n      jump\t// in\n    tag_31:\n        /* \"contracts/basic.sol\":418:443  uint256 tot = _order*rate */\n      swap1\n      pop\n        /* \"contracts/basic.sol\":454:460  person */\n      0x04\n        /* \"contracts/basic.sol\":466:497  details(_name,phone,_order,tot) */\n      mload(0x40)\n      dup1\n      0x80\n      add\n      0x40\n      mstore\n      dup1\n        /* \"contracts/basic.sol\":474:479  _name */\n      dup7\n        /* \"contracts/basic.sol\":466:497  details(_name,phone,_order,tot) */\n      dup2\n      mstore\n      0x20\n      add\n        /* \"contracts/basic.sol\":480:485  phone */\n      dup5\n        /* \"contracts/basic.sol\":466:497  details(_name,phone,_order,tot) */\n      dup2\n      mstore\n      0x20\n      add\n        /* \"contracts/basic.sol\":486:492  _order */\n      dup6\n        /* \"contracts/basic.sol\":466:497  details(_name,phone,_order,tot) */\n      dup2\n      mstore\n      0x20\n      add\n        /* \"contracts/basic.sol\":493:496  tot */\n      dup4\n        /* \"contracts/basic.sol\":466:497  details(_name,phone,_order,tot) */\n      dup2\n      mstore\n      pop\n        /* \"contracts/basic.sol\":454:498  person.push(details(_name,phone,_order,tot)) */\n      swap1\n      dup1\n      0x01\n      dup2\n      sload\n      add\n      dup1\n      dup3\n      sstore\n      dup1\n      swap2\n      pop\n      pop\n      0x01\n      swap1\n      sub\n      swap1\n      0x00\n      mstore\n      keccak256(0x00, 0x20)\n      swap1\n      0x04\n      mul\n      add\n      0x00\n      swap1\n      swap2\n      swap1\n      swap2\n      swap1\n      swap2\n      pop\n      0x00\n      dup3\n      add\n      mload\n      dup2\n      0x00\n      add\n      swap1\n      dup1\n      mload\n      swap1\n      0x20\n      add\n      swap1\n      tag_34\n      swap3\n      swap2\n      swap1\n      tag_35\n      jump\t// in\n    tag_34:\n      pop\n      0x20\n      dup3\n      add\n      mload\n      dup2\n      0x01\n      add\n      sstore\n      0x40\n      dup3\n      add\n      mload\n      dup2\n      0x02\n      add\n      sstore\n      0x60\n      dup3\n      add\n      mload\n      dup2\n      0x03\n      add\n      sstore\n      pop\n      pop\n        /* \"contracts/basic.sol\":524:530  _order */\n      dup3\n        /* \"contracts/basic.sol\":509:516  combine */\n      0x03\n        /* \"contracts/basic.sol\":517:522  _name */\n      dup6\n        /* \"contracts/basic.sol\":509:523  combine[_name] */\n      mload(0x40)\n      tag_36\n      swap2\n      swap1\n      tag_37\n      jump\t// in\n    tag_36:\n      swap1\n      dup2\n      mstore\n      0x20\n      add\n      mload(0x40)\n      dup1\n      swap2\n      sub\n      swap1\n      keccak256\n        /* \"contracts/basic.sol\":509:530  combine[_name]=_order */\n      dup2\n      swap1\n      sstore\n      pop\n        /* \"contracts/basic.sol\":407:537  {... */\n      pop\n        /* \"contracts/basic.sol\":335:537  function addOrder(string memory _name,uint256 _order,uint phone ) public{... */\n      pop\n      pop\n      pop\n      jump\t// out\n        /* \"contracts/basic.sol\":253:294  mapping(string => uint256) public combine */\n    tag_19:\n      0x03\n      dup2\n      dup1\n      mload\n      0x20\n      dup2\n      add\n      dup3\n      add\n      dup1\n      mload\n      dup5\n      dup3\n      mstore\n      0x20\n      dup4\n      add\n      0x20\n      dup6\n      add\n      keccak256\n      dup2\n      dup4\n      mstore\n      dup1\n      swap6\n      pop\n      pop\n      pop\n      pop\n      pop\n      pop\n      0x00\n      swap2\n      pop\n      swap1\n      pop\n      sload\n      dup2\n      jump\t// out\n    tag_35:\n      dup3\n      dup1\n      sload\n      tag_38\n      swap1\n      tag_25\n      jump\t// in\n    tag_38:\n      swap1\n      0x00\n      mstore\n      keccak256(0x00, 0x20)\n      swap1\n      0x1f\n      add\n      0x20\n      swap1\n      div\n      dup2\n      add\n      swap3\n      dup3\n      tag_40\n      jumpi\n      0x00\n      dup6\n      sstore\n      jump(tag_39)\n    tag_40:\n      dup3\n      0x1f\n      lt\n      tag_41\n      jumpi\n      dup1\n      mload\n      not(0xff)\n      and\n      dup4\n      dup1\n      add\n      or\n      dup6\n      sstore\n      jump(tag_39)\n    tag_41:\n      dup3\n      dup1\n      add\n      0x01\n      add\n      dup6\n      sstore\n      dup3\n      iszero\n      tag_39\n      jumpi\n      swap2\n      dup3\n      add\n    tag_42:\n      dup3\n      dup2\n      gt\n      iszero\n      tag_43\n      jumpi\n      dup3\n      mload\n      dup3\n      sstore\n      swap2\n      0x20\n      add\n      swap2\n      swap1\n      0x01\n      add\n      swap1\n      jump(tag_42)\n    tag_43:\n    tag_39:\n      pop\n      swap1\n      pop\n      tag_44\n      swap2\n      swap1\n      tag_45\n      jump\t// in\n    tag_44:\n      pop\n      swap1\n      jump\t// out\n    tag_45:\n    tag_46:\n      dup1\n      dup3\n      gt\n      iszero\n      tag_47\n      jumpi\n      0x00\n      dup2\n      0x00\n      swap1\n      sstore\n      pop\n      0x01\n      add\n      jump(tag_46)\n    tag_47:\n      pop\n      swap1\n      jump\t// out\n        /* \"#utility.yul\":7:82   */\n    tag_48:\n        /* \"#utility.yul\":40:46   */\n      0x00\n        /* \"#utility.yul\":73:75   */\n      0x40\n        /* \"#utility.yul\":67:76   */\n      mload\n        /* \"#utility.yul\":57:76   */\n      swap1\n      pop\n        /* \"#utility.yul\":7:82   */\n      swap1\n      jump\t// out\n        /* \"#utility.yul\":88:205   */\n    tag_49:\n        /* \"#utility.yul\":197:198   */\n      0x00\n        /* \"#utility.yul\":194:195   */\n      dup1\n        /* \"#utility.yul\":187:199   */\n      revert\n        /* \"#utility.yul\":211:328   */\n    tag_50:\n        /* \"#utility.yul\":320:321   */\n      0x00\n        /* \"#utility.yul\":317:318   */\n      dup1\n        /* \"#utility.yul\":310:322   */\n      revert\n        /* \"#utility.yul\":334:411   */\n    tag_51:\n        /* \"#utility.yul\":371:378   */\n      0x00\n        /* \"#utility.yul\":400:405   */\n      dup2\n        /* \"#utility.yul\":389:405   */\n      swap1\n      pop\n        /* \"#utility.yul\":334:411   */\n      swap2\n      swap1\n      pop\n      jump\t// out\n        /* \"#utility.yul\":417:539   */\n    tag_52:\n        /* \"#utility.yul\":490:514   */\n      tag_79\n        /* \"#utility.yul\":508:513   */\n      dup2\n        /* \"#utility.yul\":490:514   */\n      tag_51\n      jump\t// in\n    tag_79:\n        /* \"#utility.yul\":483:488   */\n      dup2\n        /* \"#utility.yul\":480:515   */\n      eq\n        /* \"#utility.yul\":470:533   */\n      tag_80\n      jumpi\n        /* \"#utility.yul\":529:530   */\n      0x00\n        /* \"#utility.yul\":526:527   */\n      dup1\n        /* \"#utility.yul\":519:531   */\n      revert\n        /* \"#utility.yul\":470:533   */\n    tag_80:\n        /* \"#utility.yul\":417:539   */\n      pop\n      jump\t// out\n        /* \"#utility.yul\":545:684   */\n    tag_53:\n        /* \"#utility.yul\":591:596   */\n      0x00\n        /* \"#utility.yul\":629:635   */\n      dup2\n        /* \"#utility.yul\":616:636   */\n      calldataload\n        /* \"#utility.yul\":607:636   */\n      swap1\n      pop\n        /* \"#utility.yul\":645:678   */\n      tag_82\n        /* \"#utility.yul\":672:677   */\n      dup2\n        /* \"#utility.yul\":645:678   */\n      tag_52\n      jump\t// in\n    tag_82:\n        /* \"#utility.yul\":545:684   */\n      swap3\n      swap2\n      pop\n      pop\n      jump\t// out\n        /* \"#utility.yul\":690:1019   */\n    tag_8:\n        /* \"#utility.yul\":749:755   */\n      0x00\n        /* \"#utility.yul\":798:800   */\n      0x20\n        /* \"#utility.yul\":786:795   */\n      dup3\n        /* \"#utility.yul\":777:784   */\n      dup5\n        /* \"#utility.yul\":773:796   */\n      sub\n        /* \"#utility.yul\":769:801   */\n      slt\n        /* \"#utility.yul\":766:885   */\n      iszero\n      tag_84\n      jumpi\n        /* \"#utility.yul\":804:883   */\n      tag_85\n      tag_49\n      jump\t// in\n    tag_85:\n        /* \"#utility.yul\":766:885   */\n    tag_84:\n        /* \"#utility.yul\":924:925   */\n      0x00\n        /* \"#utility.yul\":949:1002   */\n      tag_86\n        /* \"#utility.yul\":994:1001   */\n      dup5\n        /* \"#utility.yul\":985:991   */\n      dup3\n        /* \"#utility.yul\":974:983   */\n      dup6\n        /* \"#utility.yul\":970:992   */\n      add\n        /* \"#utility.yul\":949:1002   */\n      tag_53\n      jump\t// in\n    tag_86:\n        /* \"#utility.yul\":939:1002   */\n      swap2\n      pop\n        /* \"#utility.yul\":895:1012   */\n      pop\n        /* \"#utility.yul\":690:1019   */\n      swap3\n      swap2\n      pop\n      pop\n      jump\t// out\n        /* \"#utility.yul\":1025:1124   */\n    tag_54:\n        /* \"#utility.yul\":1077:1083   */\n      0x00\n        /* \"#utility.yul\":1111:1116   */\n      dup2\n        /* \"#utility.yul\":1105:1117   */\n      mload\n        /* \"#utility.yul\":1095:1117   */\n      swap1\n      pop\n        /* \"#utility.yul\":1025:1124   */\n      swap2\n      swap1\n      pop\n      jump\t// out\n        /* \"#utility.yul\":1130:1299   */\n    tag_55:\n        /* \"#utility.yul\":1214:1225   */\n      0x00\n        /* \"#utility.yul\":1248:1254   */\n      dup3\n        /* \"#utility.yul\":1243:1246   */\n      dup3\n        /* \"#utility.yul\":1236:1255   */\n      mstore\n        /* \"#utility.yul\":1288:1292   */\n      0x20\n        /* \"#utility.yul\":1283:1286   */\n      dup3\n        /* \"#utility.yul\":1279:1293   */\n      add\n        /* \"#utility.yul\":1264:1293   */\n      swap1\n      pop\n        /* \"#utility.yul\":1130:1299   */\n      swap3\n      swap2\n      pop\n      pop\n      jump\t// out\n        /* \"#utility.yul\":1305:1612   */\n    tag_56:\n        /* \"#utility.yul\":1373:1374   */\n      0x00\n        /* \"#utility.yul\":1383:1496   */\n    tag_90:\n        /* \"#utility.yul\":1397:1403   */\n      dup4\n        /* \"#utility.yul\":1394:1395   */\n      dup2\n        /* \"#utility.yul\":1391:1404   */\n      lt\n        /* \"#utility.yul\":1383:1496   */\n      iszero\n      tag_92\n      jumpi\n        /* \"#utility.yul\":1482:1483   */\n      dup1\n        /* \"#utility.yul\":1477:1480   */\n      dup3\n        /* \"#utility.yul\":1473:1484   */\n      add\n        /* \"#utility.yul\":1467:1485   */\n      mload\n        /* \"#utility.yul\":1463:1464   */\n      dup2\n        /* \"#utility.yul\":1458:1461   */\n      dup5\n        /* \"#utility.yul\":1454:1465   */\n      add\n        /* \"#utility.yul\":1447:1486   */\n      mstore\n        /* \"#utility.yul\":1419:1421   */\n      0x20\n        /* \"#utility.yul\":1416:1417   */\n      dup2\n        /* \"#utility.yul\":1412:1422   */\n      add\n        /* \"#utility.yul\":1407:1422   */\n      swap1\n      pop\n        /* \"#utility.yul\":1383:1496   */\n      jump(tag_90)\n    tag_92:\n        /* \"#utility.yul\":1514:1520   */\n      dup4\n        /* \"#utility.yul\":1511:1512   */\n      dup2\n        /* \"#utility.yul\":1508:1521   */\n      gt\n        /* \"#utility.yul\":1505:1606   */\n      iszero\n      tag_93\n      jumpi\n        /* \"#utility.yul\":1594:1595   */\n      0x00\n        /* \"#utility.yul\":1585:1591   */\n      dup5\n        /* \"#utility.yul\":1580:1583   */\n      dup5\n        /* \"#utility.yul\":1576:1592   */\n      add\n        /* \"#utility.yul\":1569:1596   */\n      mstore\n        /* \"#utility.yul\":1505:1606   */\n    tag_93:\n        /* \"#utility.yul\":1354:1612   */\n      pop\n        /* \"#utility.yul\":1305:1612   */\n      pop\n      pop\n      pop\n      jump\t// out\n        /* \"#utility.yul\":1618:1720   */\n    tag_57:\n        /* \"#utility.yul\":1659:1665   */\n      0x00\n        /* \"#utility.yul\":1710:1712   */\n      0x1f\n        /* \"#utility.yul\":1706:1713   */\n      not\n        /* \"#utility.yul\":1701:1703   */\n      0x1f\n        /* \"#utility.yul\":1694:1699   */\n      dup4\n        /* \"#utility.yul\":1690:1704   */\n      add\n        /* \"#utility.yul\":1686:1714   */\n      and\n        /* \"#utility.yul\":1676:1714   */\n      swap1\n      pop\n        /* \"#utility.yul\":1618:1720   */\n      swap2\n      swap1\n      pop\n      jump\t// out\n        /* \"#utility.yul\":1726:2090   */\n    tag_58:\n        /* \"#utility.yul\":1814:1817   */\n      0x00\n        /* \"#utility.yul\":1842:1881   */\n      tag_96\n        /* \"#utility.yul\":1875:1880   */\n      dup3\n        /* \"#utility.yul\":1842:1881   */\n      tag_54\n      jump\t// in\n    tag_96:\n        /* \"#utility.yul\":1897:1968   */\n      tag_97\n        /* \"#utility.yul\":1961:1967   */\n      dup2\n        /* \"#utility.yul\":1956:1959   */\n      dup6\n        /* \"#utility.yul\":1897:1968   */\n      tag_55\n      jump\t// in\n    tag_97:\n        /* \"#utility.yul\":1890:1968   */\n      swap4\n      pop\n        /* \"#utility.yul\":1977:2029   */\n      tag_98\n        /* \"#utility.yul\":2022:2028   */\n      dup2\n        /* \"#utility.yul\":2017:2020   */\n      dup6\n        /* \"#utility.yul\":2010:2014   */\n      0x20\n        /* \"#utility.yul\":2003:2008   */\n      dup7\n        /* \"#utility.yul\":1999:2015   */\n      add\n        /* \"#utility.yul\":1977:2029   */\n      tag_56\n      jump\t// in\n    tag_98:\n        /* \"#utility.yul\":2054:2083   */\n      tag_99\n        /* \"#utility.yul\":2076:2082   */\n      dup2\n        /* \"#utility.yul\":2054:2083   */\n      tag_57\n      jump\t// in\n    tag_99:\n        /* \"#utility.yul\":2049:2052   */\n      dup5\n        /* \"#utility.yul\":2045:2084   */\n      add\n        /* \"#utility.yul\":2038:2084   */\n      swap2\n      pop\n        /* \"#utility.yul\":1818:2090   */\n      pop\n        /* \"#utility.yul\":1726:2090   */\n      swap3\n      swap2\n      pop\n      pop\n      jump\t// out\n        /* \"#utility.yul\":2096:2214   */\n    tag_59:\n        /* \"#utility.yul\":2183:2207   */\n      tag_101\n        /* \"#utility.yul\":2201:2206   */\n      dup2\n        /* \"#utility.yul\":2183:2207   */\n      tag_51\n      jump\t// in\n    tag_101:\n        /* \"#utility.yul\":2178:2181   */\n      dup3\n        /* \"#utility.yul\":2171:2208   */\n      mstore\n        /* \"#utility.yul\":2096:2214   */\n      pop\n      pop\n      jump\t// out\n        /* \"#utility.yul\":2220:2864   */\n    tag_11:\n        /* \"#utility.yul\":2417:2421   */\n      0x00\n        /* \"#utility.yul\":2455:2458   */\n      0x80\n        /* \"#utility.yul\":2444:2453   */\n      dup3\n        /* \"#utility.yul\":2440:2459   */\n      add\n        /* \"#utility.yul\":2432:2459   */\n      swap1\n      pop\n        /* \"#utility.yul\":2505:2514   */\n      dup2\n        /* \"#utility.yul\":2499:2503   */\n      dup2\n        /* \"#utility.yul\":2495:2515   */\n      sub\n        /* \"#utility.yul\":2491:2492   */\n      0x00\n        /* \"#utility.yul\":2480:2489   */\n      dup4\n        /* \"#utility.yul\":2476:2493   */\n      add\n        /* \"#utility.yul\":2469:2516   */\n      mstore\n        /* \"#utility.yul\":2533:2611   */\n      tag_103\n        /* \"#utility.yul\":2606:2610   */\n      dup2\n        /* \"#utility.yul\":2597:2603   */\n      dup8\n        /* \"#utility.yul\":2533:2611   */\n      tag_58\n      jump\t// in\n    tag_103:\n        /* \"#utility.yul\":2525:2611   */\n      swap1\n      pop\n        /* \"#utility.yul\":2621:2693   */\n      tag_104\n        /* \"#utility.yul\":2689:2691   */\n      0x20\n        /* \"#utility.yul\":2678:2687   */\n      dup4\n        /* \"#utility.yul\":2674:2692   */\n      add\n        /* \"#utility.yul\":2665:2671   */\n      dup7\n        /* \"#utility.yul\":2621:2693   */\n      tag_59\n      jump\t// in\n    tag_104:\n        /* \"#utility.yul\":2703:2775   */\n      tag_105\n        /* \"#utility.yul\":2771:2773   */\n      0x40\n        /* \"#utility.yul\":2760:2769   */\n      dup4\n        /* \"#utility.yul\":2756:2774   */\n      add\n        /* \"#utility.yul\":2747:2753   */\n      dup6\n        /* \"#utility.yul\":2703:2775   */\n      tag_59\n      jump\t// in\n    tag_105:\n        /* \"#utility.yul\":2785:2857   */\n      tag_106\n        /* \"#utility.yul\":2853:2855   */\n      0x60\n        /* \"#utility.yul\":2842:2851   */\n      dup4\n        /* \"#utility.yul\":2838:2856   */\n      add\n        /* \"#utility.yul\":2829:2835   */\n      dup5\n        /* \"#utility.yul\":2785:2857   */\n      tag_59\n      jump\t// in\n    tag_106:\n        /* \"#utility.yul\":2220:2864   */\n      swap6\n      swap5\n      pop\n      pop\n      pop\n      pop\n      pop\n      jump\t// out\n        /* \"#utility.yul\":2870:2987   */\n    tag_60:\n        /* \"#utility.yul\":2979:2980   */\n      0x00\n        /* \"#utility.yul\":2976:2977   */\n      dup1\n        /* \"#utility.yul\":2969:2981   */\n      revert\n        /* \"#utility.yul\":2993:3110   */\n    tag_61:\n        /* \"#utility.yul\":3102:3103   */\n      0x00\n        /* \"#utility.yul\":3099:3100   */\n      dup1\n        /* \"#utility.yul\":3092:3104   */\n      revert\n        /* \"#utility.yul\":3116:3296   */\n    tag_62:\n        /* \"#utility.yul\":3164:3241   */\n      0x4e487b7100000000000000000000000000000000000000000000000000000000\n        /* \"#utility.yul\":3161:3162   */\n      0x00\n        /* \"#utility.yul\":3154:3242   */\n      mstore\n        /* \"#utility.yul\":3261:3265   */\n      0x41\n        /* \"#utility.yul\":3258:3259   */\n      0x04\n        /* \"#utility.yul\":3251:3266   */\n      mstore\n        /* \"#utility.yul\":3285:3289   */\n      0x24\n        /* \"#utility.yul\":3282:3283   */\n      0x00\n        /* \"#utility.yul\":3275:3290   */\n      revert\n        /* \"#utility.yul\":3302:3583   */\n    tag_63:\n        /* \"#utility.yul\":3385:3412   */\n      tag_111\n        /* \"#utility.yul\":3407:3411   */\n      dup3\n        /* \"#utility.yul\":3385:3412   */\n      tag_57\n      jump\t// in\n    tag_111:\n        /* \"#utility.yul\":3377:3383   */\n      dup2\n        /* \"#utility.yul\":3373:3413   */\n      add\n        /* \"#utility.yul\":3515:3521   */\n      dup2\n        /* \"#utility.yul\":3503:3513   */\n      dup2\n        /* \"#utility.yul\":3500:3522   */\n      lt\n        /* \"#utility.yul\":3479:3497   */\n      0xffffffffffffffff\n        /* \"#utility.yul\":3467:3477   */\n      dup3\n        /* \"#utility.yul\":3464:3498   */\n      gt\n        /* \"#utility.yul\":3461:3523   */\n      or\n        /* \"#utility.yul\":3458:3546   */\n      iszero\n      tag_112\n      jumpi\n        /* \"#utility.yul\":3526:3544   */\n      tag_113\n      tag_62\n      jump\t// in\n    tag_113:\n        /* \"#utility.yul\":3458:3546   */\n    tag_112:\n        /* \"#utility.yul\":3566:3576   */\n      dup1\n        /* \"#utility.yul\":3562:3564   */\n      0x40\n        /* \"#utility.yul\":3555:3577   */\n      mstore\n        /* \"#utility.yul\":3345:3583   */\n      pop\n        /* \"#utility.yul\":3302:3583   */\n      pop\n      pop\n      jump\t// out\n        /* \"#utility.yul\":3589:3718   */\n    tag_64:\n        /* \"#utility.yul\":3623:3629   */\n      0x00\n        /* \"#utility.yul\":3650:3670   */\n      tag_115\n      tag_48\n      jump\t// in\n    tag_115:\n        /* \"#utility.yul\":3640:3670   */\n      swap1\n      pop\n        /* \"#utility.yul\":3679:3712   */\n      tag_116\n        /* \"#utility.yul\":3707:3711   */\n      dup3\n        /* \"#utility.yul\":3699:3705   */\n      dup3\n        /* \"#utility.yul\":3679:3712   */\n      tag_63\n      jump\t// in\n    tag_116:\n        /* \"#utility.yul\":3589:3718   */\n      swap2\n      swap1\n      pop\n      jump\t// out\n        /* \"#utility.yul\":3724:4032   */\n    tag_65:\n        /* \"#utility.yul\":3786:3790   */\n      0x00\n        /* \"#utility.yul\":3876:3894   */\n      0xffffffffffffffff\n        /* \"#utility.yul\":3868:3874   */\n      dup3\n        /* \"#utility.yul\":3865:3895   */\n      gt\n        /* \"#utility.yul\":3862:3918   */\n      iszero\n      tag_118\n      jumpi\n        /* \"#utility.yul\":3898:3916   */\n      tag_119\n      tag_62\n      jump\t// in\n    tag_119:\n        /* \"#utility.yul\":3862:3918   */\n    tag_118:\n        /* \"#utility.yul\":3936:3965   */\n      tag_120\n        /* \"#utility.yul\":3958:3964   */\n      dup3\n        /* \"#utility.yul\":3936:3965   */\n      tag_57\n      jump\t// in\n    tag_120:\n        /* \"#utility.yul\":3928:3965   */\n      swap1\n      pop\n        /* \"#utility.yul\":4020:4024   */\n      0x20\n        /* \"#utility.yul\":4014:4018   */\n      dup2\n        /* \"#utility.yul\":4010:4025   */\n      add\n        /* \"#utility.yul\":4002:4025   */\n      swap1\n      pop\n        /* \"#utility.yul\":3724:4032   */\n      swap2\n      swap1\n      pop\n      jump\t// out\n        /* \"#utility.yul\":4038:4192   */\n    tag_66:\n        /* \"#utility.yul\":4122:4128   */\n      dup3\n        /* \"#utility.yul\":4117:4120   */\n      dup2\n        /* \"#utility.yul\":4112:4115   */\n      dup4\n        /* \"#utility.yul\":4099:4129   */\n      calldatacopy\n        /* \"#utility.yul\":4184:4185   */\n      0x00\n        /* \"#utility.yul\":4175:4181   */\n      dup4\n        /* \"#utility.yul\":4170:4173   */\n      dup4\n        /* \"#utility.yul\":4166:4182   */\n      add\n        /* \"#utility.yul\":4159:4186   */\n      mstore\n        /* \"#utility.yul\":4038:4192   */\n      pop\n      pop\n      pop\n      jump\t// out\n        /* \"#utility.yul\":4198:4610   */\n    tag_67:\n        /* \"#utility.yul\":4276:4281   */\n      0x00\n        /* \"#utility.yul\":4301:4367   */\n      tag_123\n        /* \"#utility.yul\":4317:4366   */\n      tag_124\n        /* \"#utility.yul\":4359:4365   */\n      dup5\n        /* \"#utility.yul\":4317:4366   */\n      tag_65\n      jump\t// in\n    tag_124:\n        /* \"#utility.yul\":4301:4367   */\n      tag_64\n      jump\t// in\n    tag_123:\n        /* \"#utility.yul\":4292:4367   */\n      swap1\n      pop\n        /* \"#utility.yul\":4390:4396   */\n      dup3\n        /* \"#utility.yul\":4383:4388   */\n      dup2\n        /* \"#utility.yul\":4376:4397   */\n      mstore\n        /* \"#utility.yul\":4428:4432   */\n      0x20\n        /* \"#utility.yul\":4421:4426   */\n      dup2\n        /* \"#utility.yul\":4417:4433   */\n      add\n        /* \"#utility.yul\":4466:4469   */\n      dup5\n        /* \"#utility.yul\":4457:4463   */\n      dup5\n        /* \"#utility.yul\":4452:4455   */\n      dup5\n        /* \"#utility.yul\":4448:4464   */\n      add\n        /* \"#utility.yul\":4445:4470   */\n      gt\n        /* \"#utility.yul\":4442:4554   */\n      iszero\n      tag_125\n      jumpi\n        /* \"#utility.yul\":4473:4552   */\n      tag_126\n      tag_61\n      jump\t// in\n    tag_126:\n        /* \"#utility.yul\":4442:4554   */\n    tag_125:\n        /* \"#utility.yul\":4563:4604   */\n      tag_127\n        /* \"#utility.yul\":4597:4603   */\n      dup5\n        /* \"#utility.yul\":4592:4595   */\n      dup3\n        /* \"#utility.yul\":4587:4590   */\n      dup6\n        /* \"#utility.yul\":4563:4604   */\n      tag_66\n      jump\t// in\n    tag_127:\n        /* \"#utility.yul\":4282:4610   */\n      pop\n        /* \"#utility.yul\":4198:4610   */\n      swap4\n      swap3\n      pop\n      pop\n      pop\n      jump\t// out\n        /* \"#utility.yul\":4630:4970   */\n    tag_68:\n        /* \"#utility.yul\":4686:4691   */\n      0x00\n        /* \"#utility.yul\":4735:4738   */\n      dup3\n        /* \"#utility.yul\":4728:4732   */\n      0x1f\n        /* \"#utility.yul\":4720:4726   */\n      dup4\n        /* \"#utility.yul\":4716:4733   */\n      add\n        /* \"#utility.yul\":4712:4739   */\n      slt\n        /* \"#utility.yul\":4702:4824   */\n      tag_129\n      jumpi\n        /* \"#utility.yul\":4743:4822   */\n      tag_130\n      tag_60\n      jump\t// in\n    tag_130:\n        /* \"#utility.yul\":4702:4824   */\n    tag_129:\n        /* \"#utility.yul\":4860:4866   */\n      dup2\n        /* \"#utility.yul\":4847:4867   */\n      calldataload\n        /* \"#utility.yul\":4885:4964   */\n      tag_131\n        /* \"#utility.yul\":4960:4963   */\n      dup5\n        /* \"#utility.yul\":4952:4958   */\n      dup3\n        /* \"#utility.yul\":4945:4949   */\n      0x20\n        /* \"#utility.yul\":4937:4943   */\n      dup7\n        /* \"#utility.yul\":4933:4950   */\n      add\n        /* \"#utility.yul\":4885:4964   */\n      tag_67\n      jump\t// in\n    tag_131:\n        /* \"#utility.yul\":4876:4964   */\n      swap2\n      pop\n        /* \"#utility.yul\":4692:4970   */\n      pop\n        /* \"#utility.yul\":4630:4970   */\n      swap3\n      swap2\n      pop\n      pop\n      jump\t// out\n        /* \"#utility.yul\":4976:5775   */\n    tag_14:\n        /* \"#utility.yul\":5063:5069   */\n      0x00\n        /* \"#utility.yul\":5071:5077   */\n      dup1\n        /* \"#utility.yul\":5079:5085   */\n      0x00\n        /* \"#utility.yul\":5128:5130   */\n      0x60\n        /* \"#utility.yul\":5116:5125   */\n      dup5\n        /* \"#utility.yul\":5107:5114   */\n      dup7\n        /* \"#utility.yul\":5103:5126   */\n      sub\n        /* \"#utility.yul\":5099:5131   */\n      slt\n        /* \"#utility.yul\":5096:5215   */\n      iszero\n      tag_133\n      jumpi\n        /* \"#utility.yul\":5134:5213   */\n      tag_134\n      tag_49\n      jump\t// in\n    tag_134:\n        /* \"#utility.yul\":5096:5215   */\n    tag_133:\n        /* \"#utility.yul\":5282:5283   */\n      0x00\n        /* \"#utility.yul\":5271:5280   */\n      dup5\n        /* \"#utility.yul\":5267:5284   */\n      add\n        /* \"#utility.yul\":5254:5285   */\n      calldataload\n        /* \"#utility.yul\":5312:5330   */\n      0xffffffffffffffff\n        /* \"#utility.yul\":5304:5310   */\n      dup2\n        /* \"#utility.yul\":5301:5331   */\n      gt\n        /* \"#utility.yul\":5298:5415   */\n      iszero\n      tag_135\n      jumpi\n        /* \"#utility.yul\":5334:5413   */\n      tag_136\n      tag_50\n      jump\t// in\n    tag_136:\n        /* \"#utility.yul\":5298:5415   */\n    tag_135:\n        /* \"#utility.yul\":5439:5502   */\n      tag_137\n        /* \"#utility.yul\":5494:5501   */\n      dup7\n        /* \"#utility.yul\":5485:5491   */\n      dup3\n        /* \"#utility.yul\":5474:5483   */\n      dup8\n        /* \"#utility.yul\":5470:5492   */\n      add\n        /* \"#utility.yul\":5439:5502   */\n      tag_68\n      jump\t// in\n    tag_137:\n        /* \"#utility.yul\":5429:5502   */\n      swap4\n      pop\n        /* \"#utility.yul\":5225:5512   */\n      pop\n        /* \"#utility.yul\":5551:5553   */\n      0x20\n        /* \"#utility.yul\":5577:5630   */\n      tag_138\n        /* \"#utility.yul\":5622:5629   */\n      dup7\n        /* \"#utility.yul\":5613:5619   */\n      dup3\n        /* \"#utility.yul\":5602:5611   */\n      dup8\n        /* \"#utility.yul\":5598:5620   */\n      add\n        /* \"#utility.yul\":5577:5630   */\n      tag_53\n      jump\t// in\n    tag_138:\n        /* \"#utility.yul\":5567:5630   */\n      swap3\n      pop\n        /* \"#utility.yul\":5522:5640   */\n      pop\n        /* \"#utility.yul\":5679:5681   */\n      0x40\n        /* \"#utility.yul\":5705:5758   */\n      tag_139\n        /* \"#utility.yul\":5750:5757   */\n      dup7\n        /* \"#utility.yul\":5741:5747   */\n      dup3\n        /* \"#utility.yul\":5730:5739   */\n      dup8\n        /* \"#utility.yul\":5726:5748   */\n      add\n        /* \"#utility.yul\":5705:5758   */\n      tag_53\n      jump\t// in\n    tag_139:\n        /* \"#utility.yul\":5695:5758   */\n      swap2\n      pop\n        /* \"#utility.yul\":5650:5768   */\n      pop\n        /* \"#utility.yul\":4976:5775   */\n      swap3\n      pop\n      swap3\n      pop\n      swap3\n      jump\t// out\n        /* \"#utility.yul\":5781:6290   */\n    tag_18:\n        /* \"#utility.yul\":5850:5856   */\n      0x00\n        /* \"#utility.yul\":5899:5901   */\n      0x20\n        /* \"#utility.yul\":5887:5896   */\n      dup3\n        /* \"#utility.yul\":5878:5885   */\n      dup5\n        /* \"#utility.yul\":5874:5897   */\n      sub\n        /* \"#utility.yul\":5870:5902   */\n      slt\n        /* \"#utility.yul\":5867:5986   */\n      iszero\n      tag_141\n      jumpi\n        /* \"#utility.yul\":5905:5984   */\n      tag_142\n      tag_49\n      jump\t// in\n    tag_142:\n        /* \"#utility.yul\":5867:5986   */\n    tag_141:\n        /* \"#utility.yul\":6053:6054   */\n      0x00\n        /* \"#utility.yul\":6042:6051   */\n      dup3\n        /* \"#utility.yul\":6038:6055   */\n      add\n        /* \"#utility.yul\":6025:6056   */\n      calldataload\n        /* \"#utility.yul\":6083:6101   */\n      0xffffffffffffffff\n        /* \"#utility.yul\":6075:6081   */\n      dup2\n        /* \"#utility.yul\":6072:6102   */\n      gt\n        /* \"#utility.yul\":6069:6186   */\n      iszero\n      tag_143\n      jumpi\n        /* \"#utility.yul\":6105:6184   */\n      tag_144\n      tag_50\n      jump\t// in\n    tag_144:\n        /* \"#utility.yul\":6069:6186   */\n    tag_143:\n        /* \"#utility.yul\":6210:6273   */\n      tag_145\n        /* \"#utility.yul\":6265:6272   */\n      dup5\n        /* \"#utility.yul\":6256:6262   */\n      dup3\n        /* \"#utility.yul\":6245:6254   */\n      dup6\n        /* \"#utility.yul\":6241:6263   */\n      add\n        /* \"#utility.yul\":6210:6273   */\n      tag_68\n      jump\t// in\n    tag_145:\n        /* \"#utility.yul\":6200:6273   */\n      swap2\n      pop\n        /* \"#utility.yul\":5996:6283   */\n      pop\n        /* \"#utility.yul\":5781:6290   */\n      swap3\n      swap2\n      pop\n      pop\n      jump\t// out\n        /* \"#utility.yul\":6296:6518   */\n    tag_21:\n        /* \"#utility.yul\":6389:6393   */\n      0x00\n        /* \"#utility.yul\":6427:6429   */\n      0x20\n        /* \"#utility.yul\":6416:6425   */\n      dup3\n        /* \"#utility.yul\":6412:6430   */\n      add\n        /* \"#utility.yul\":6404:6430   */\n      swap1\n      pop\n        /* \"#utility.yul\":6440:6511   */\n      tag_147\n        /* \"#utility.yul\":6508:6509   */\n      0x00\n        /* \"#utility.yul\":6497:6506   */\n      dup4\n        /* \"#utility.yul\":6493:6510   */\n      add\n        /* \"#utility.yul\":6484:6490   */\n      dup5\n        /* \"#utility.yul\":6440:6511   */\n      tag_59\n      jump\t// in\n    tag_147:\n        /* \"#utility.yul\":6296:6518   */\n      swap3\n      swap2\n      pop\n      pop\n      jump\t// out\n        /* \"#utility.yul\":6524:6704   */\n    tag_69:\n        /* \"#utility.yul\":6572:6649   */\n      0x4e487b7100000000000000000000000000000000000000000000000000000000\n        /* \"#utility.yul\":6569:6570   */\n      0x00\n        /* \"#utility.yul\":6562:6650   */\n      mstore\n        /* \"#utility.yul\":6669:6673   */\n      0x22\n        /* \"#utility.yul\":6666:6667   */\n      0x04\n        /* \"#utility.yul\":6659:6674   */\n      mstore\n        /* \"#utility.yul\":6693:6697   */\n      0x24\n        /* \"#utility.yul\":6690:6691   */\n      0x00\n        /* \"#utility.yul\":6683:6698   */\n      revert\n        /* \"#utility.yul\":6710:7030   */\n    tag_25:\n        /* \"#utility.yul\":6754:6760   */\n      0x00\n        /* \"#utility.yul\":6791:6792   */\n      0x02\n        /* \"#utility.yul\":6785:6789   */\n      dup3\n        /* \"#utility.yul\":6781:6793   */\n      div\n        /* \"#utility.yul\":6771:6793   */\n      swap1\n      pop\n        /* \"#utility.yul\":6838:6839   */\n      0x01\n        /* \"#utility.yul\":6832:6836   */\n      dup3\n        /* \"#utility.yul\":6828:6840   */\n      and\n        /* \"#utility.yul\":6859:6877   */\n      dup1\n        /* \"#utility.yul\":6849:6930   */\n      tag_150\n      jumpi\n        /* \"#utility.yul\":6915:6919   */\n      0x7f\n        /* \"#utility.yul\":6907:6913   */\n      dup3\n        /* \"#utility.yul\":6903:6920   */\n      and\n        /* \"#utility.yul\":6893:6920   */\n      swap2\n      pop\n        /* \"#utility.yul\":6849:6930   */\n    tag_150:\n        /* \"#utility.yul\":6977:6979   */\n      0x20\n        /* \"#utility.yul\":6969:6975   */\n      dup3\n        /* \"#utility.yul\":6966:6980   */\n      lt\n        /* \"#utility.yul\":6946:6964   */\n      dup2\n        /* \"#utility.yul\":6943:6981   */\n      eq\n        /* \"#utility.yul\":6940:7024   */\n      iszero\n      tag_151\n      jumpi\n        /* \"#utility.yul\":6996:7014   */\n      tag_152\n      tag_69\n      jump\t// in\n    tag_152:\n        /* \"#utility.yul\":6940:7024   */\n    tag_151:\n        /* \"#utility.yul\":6761:7030   */\n      pop\n        /* \"#utility.yul\":6710:7030   */\n      swap2\n      swap1\n      pop\n      jump\t// out\n        /* \"#utility.yul\":7036:7216   */\n    tag_70:\n        /* \"#utility.yul\":7084:7161   */\n      0x4e487b7100000000000000000000000000000000000000000000000000000000\n        /* \"#utility.yul\":7081:7082   */\n      0x00\n        /* \"#utility.yul\":7074:7162   */\n      mstore\n        /* \"#utility.yul\":7181:7185   */\n      0x11\n        /* \"#utility.yul\":7178:7179   */\n      0x04\n        /* \"#utility.yul\":7171:7186   */\n      mstore\n        /* \"#utility.yul\":7205:7209   */\n      0x24\n        /* \"#utility.yul\":7202:7203   */\n      0x00\n        /* \"#utility.yul\":7195:7210   */\n      revert\n        /* \"#utility.yul\":7222:7570   */\n    tag_32:\n        /* \"#utility.yul\":7262:7269   */\n      0x00\n        /* \"#utility.yul\":7285:7305   */\n      tag_155\n        /* \"#utility.yul\":7303:7304   */\n      dup3\n        /* \"#utility.yul\":7285:7305   */\n      tag_51\n      jump\t// in\n    tag_155:\n        /* \"#utility.yul\":7280:7305   */\n      swap2\n      pop\n        /* \"#utility.yul\":7319:7339   */\n      tag_156\n        /* \"#utility.yul\":7337:7338   */\n      dup4\n        /* \"#utility.yul\":7319:7339   */\n      tag_51\n      jump\t// in\n    tag_156:\n        /* \"#utility.yul\":7314:7339   */\n      swap3\n      pop\n        /* \"#utility.yul\":7507:7508   */\n      dup2\n        /* \"#utility.yul\":7439:7505   */\n      0xffffffffffffffffffffffffffffffffffffffffffffffffffffffffffffffff\n        /* \"#utility.yul\":7435:7509   */\n      div\n        /* \"#utility.yul\":7432:7433   */\n      dup4\n        /* \"#utility.yul\":7429:7510   */\n      gt\n        /* \"#utility.yul\":7424:7425   */\n      dup3\n        /* \"#utility.yul\":7417:7426   */\n      iszero\n        /* \"#utility.yul\":7410:7427   */\n      iszero\n        /* \"#utility.yul\":7406:7511   */\n      and\n        /* \"#utility.yul\":7403:7534   */\n      iszero\n      tag_157\n      jumpi\n        /* \"#utility.yul\":7514:7532   */\n      tag_158\n      tag_70\n      jump\t// in\n    tag_158:\n        /* \"#utility.yul\":7403:7534   */\n    tag_157:\n        /* \"#utility.yul\":7562:7563   */\n      dup3\n        /* \"#utility.yul\":7559:7560   */\n      dup3\n        /* \"#utility.yul\":7555:7564   */\n      mul\n        /* \"#utility.yul\":7544:7564   */\n      swap1\n      pop\n        /* \"#utility.yul\":7222:7570   */\n      swap3\n      swap2\n      pop\n      pop\n      jump\t// out\n        /* \"#utility.yul\":7576:7724   */\n    tag_71:\n        /* \"#utility.yul\":7678:7689   */\n      0x00\n        /* \"#utility.yul\":7715:7718   */\n      dup2\n        /* \"#utility.yul\":7700:7718   */\n      swap1\n      pop\n        /* \"#utility.yul\":7576:7724   */\n      swap3\n      swap2\n      pop\n      pop\n      jump\t// out\n        /* \"#utility.yul\":7730:8107   */\n    tag_72:\n        /* \"#utility.yul\":7836:7839   */\n      0x00\n        /* \"#utility.yul\":7864:7903   */\n      tag_161\n        /* \"#utility.yul\":7897:7902   */\n      dup3\n        /* \"#utility.yul\":7864:7903   */\n      tag_54\n      jump\t// in\n    tag_161:\n        /* \"#utility.yul\":7919:8008   */\n      tag_162\n        /* \"#utility.yul\":8001:8007   */\n      dup2\n        /* \"#utility.yul\":7996:7999   */\n      dup6\n        /* \"#utility.yul\":7919:8008   */\n      tag_71\n      jump\t// in\n    tag_162:\n        /* \"#utility.yul\":7912:8008   */\n      swap4\n      pop\n        /* \"#utility.yul\":8017:8069   */\n      tag_163\n        /* \"#utility.yul\":8062:8068   */\n      dup2\n        /* \"#utility.yul\":8057:8060   */\n      dup6\n        /* \"#utility.yul\":8050:8054   */\n      0x20\n        /* \"#utility.yul\":8043:8048   */\n      dup7\n        /* \"#utility.yul\":8039:8055   */\n      add\n        /* \"#utility.yul\":8017:8069   */\n      tag_56\n      jump\t// in\n    tag_163:\n        /* \"#utility.yul\":8094:8100   */\n      dup1\n        /* \"#utility.yul\":8089:8092   */\n      dup5\n        /* \"#utility.yul\":8085:8101   */\n      add\n        /* \"#utility.yul\":8078:8101   */\n      swap2\n      pop\n        /* \"#utility.yul\":7840:8107   */\n      pop\n        /* \"#utility.yul\":7730:8107   */\n      swap3\n      swap2\n      pop\n      pop\n      jump\t// out\n        /* \"#utility.yul\":8113:8388   */\n    tag_37:\n        /* \"#utility.yul\":8245:8248   */\n      0x00\n        /* \"#utility.yul\":8267:8362   */\n      tag_165\n        /* \"#utility.yul\":8358:8361   */\n      dup3\n        /* \"#utility.yul\":8349:8355   */\n      dup5\n        /* \"#utility.yul\":8267:8362   */\n      tag_72\n      jump\t// in\n    tag_165:\n        /* \"#utility.yul\":8260:8362   */\n      swap2\n      pop\n        /* \"#utility.yul\":8379:8382   */\n      dup2\n        /* \"#utility.yul\":8372:8382   */\n      swap1\n      pop\n        /* \"#utility.yul\":8113:8388   */\n      swap3\n      swap2\n      pop\n      pop\n      jump\t// out\n\n    auxdata: 0xa2646970667358221220e73612d2de6afe0f770d1ed187d94207423b9a7757d6a573367e4670034e4a3e64736f6c63430008080033\n}\n",
				"bytecode": {
					"linkReferences": {},
					"object": "6080604052600860005534801561001557600080fd5b50610807806100256000396000f3fe608060405234801561001057600080fd5b50600436106100415760003560e01c8063092a182014610046578063608c6b4414610079578063e8aab4d114610095575b600080fd5b610060600480360381019061005b919061036b565b6100c5565b6040516100709493929190610440565b60405180910390f35b610093600480360381019061008e91906105c1565b61018d565b005b6100af60048036038101906100aa9190610630565b610250565b6040516100bc9190610679565b60405180910390f35b600481815481106100d557600080fd5b90600052602060002090600402016000915090508060000180546100f8906106c3565b80601f0160208091040260200160405190810160405280929190818152602001828054610124906106c3565b80156101715780601f1061014657610100808354040283529160200191610171565b820191906000526020600020905b81548152906001019060200180831161015457829003601f168201915b5050505050908060010154908060020154908060030154905084565b600080548361019c9190610724565b905060046040518060800160405280868152602001848152602001858152602001838152509080600181540180825580915050600190039060005260206000209060040201600090919091909150600082015181600001908051906020019061020692919061027e565b5060208201518160010155604082015181600201556060820151816003015550508260038560405161023891906107ba565b90815260200160405180910390208190555050505050565b6003818051602081018201805184825260208301602085012081835280955050505050506000915090505481565b82805461028a906106c3565b90600052602060002090601f0160209004810192826102ac57600085556102f3565b82601f106102c557805160ff19168380011785556102f3565b828001600101855582156102f3579182015b828111156102f25782518255916020019190600101906102d7565b5b5090506103009190610304565b5090565b5b8082111561031d576000816000905550600101610305565b5090565b6000604051905090565b600080fd5b600080fd5b6000819050919050565b61034881610335565b811461035357600080fd5b50565b6000813590506103658161033f565b92915050565b6000602082840312156103815761038061032b565b5b600061038f84828501610356565b91505092915050565b600081519050919050565b600082825260208201905092915050565b60005b838110156103d25780820151818401526020810190506103b7565b838111156103e1576000848401525b50505050565b6000601f19601f8301169050919050565b600061040382610398565b61040d81856103a3565b935061041d8185602086016103b4565b610426816103e7565b840191505092915050565b61043a81610335565b82525050565b6000608082019050818103600083015261045a81876103f8565b90506104696020830186610431565b6104766040830185610431565b6104836060830184610431565b95945050505050565b600080fd5b600080fd5b7f4e487b7100000000000000000000000000000000000000000000000000000000600052604160045260246000fd5b6104ce826103e7565b810181811067ffffffffffffffff821117156104ed576104ec610496565b5b80604052505050565b6000610500610321565b905061050c82826104c5565b919050565b600067ffffffffffffffff82111561052c5761052b610496565b5b610535826103e7565b9050602081019050919050565b82818337600083830152505050565b600061056461055f84610511565b6104f6565b9050828152602081018484840111156105805761057f610491565b5b61058b848285610542565b509392505050565b600082601f8301126105a8576105a761048c565b5b81356105b8848260208601610551565b91505092915050565b6000806000606084860312156105da576105d961032b565b5b600084013567ffffffffffffffff8111156105f8576105f7610330565b5b61060486828701610593565b935050602061061586828701610356565b925050604061062686828701610356565b9150509250925092565b6000602082840312156106465761064561032b565b5b600082013567ffffffffffffffff81111561066457610663610330565b5b61067084828501610593565b91505092915050565b600060208201905061068e6000830184610431565b92915050565b7f4e487b7100000000000000000000000000000000000000000000000000000000600052602260045260246000fd5b600060028204905060018216806106db57607f821691505b602082108114156106ef576106ee610694565b5b50919050565b7f4e487b7100000000000000000000000000000000000000000000000000000000600052601160045260246000fd5b600061072f82610335565b915061073a83610335565b9250817fffffffffffffffffffffffffffffffffffffffffffffffffffffffffffffffff0483118215151615610773576107726106f5565b5b828202905092915050565b600081905092915050565b600061079482610398565b61079e818561077e565b93506107ae8185602086016103b4565b80840191505092915050565b60006107c68284610789565b91508190509291505056fea2646970667358221220e73612d2de6afe0f770d1ed187d94207423b9a7757d6a573367e4670034e4a3e64736f6c63430008080033",
					"opcodes": "PUSH1 0x80 PUSH1 0x40 MSTORE PUSH1 0x8 PUSH1 0x0 SSTORE CALLVALUE DUP1 ISZERO PUSH2 0x15 JUMPI PUSH1 0x0 DUP1 REVERT JUMPDEST POP PUSH2 0x807 DUP1 PUSH2 0x25 PUSH1 0x0 CODECOPY PUSH1 0x0 RETURN INVALID PUSH1 0x80 PUSH1 0x40 MSTORE CALLVALUE DUP1 ISZERO PUSH2 0x10 JUMPI PUSH1 0x0 DUP1 REVERT JUMPDEST POP PUSH1 0x4 CALLDATASIZE LT PUSH2 0x41 JUMPI PUSH1 0x0 CALLDATALOAD PUSH1 0xE0 SHR DUP1 PUSH4 0x92A1820 EQ PUSH2 0x46 JUMPI DUP1 PUSH4 0x608C6B44 EQ PUSH2 0x79 JUMPI DUP1 PUSH4 0xE8AAB4D1 EQ PUSH2 0x95 JUMPI JUMPDEST PUSH1 0x0 DUP1 REVERT JUMPDEST PUSH2 0x60 PUSH1 0x4 DUP1 CALLDATASIZE SUB DUP2 ADD SWAP1 PUSH2 0x5B SWAP2 SWAP1 PUSH2 0x36B JUMP JUMPDEST PUSH2 0xC5 JUMP JUMPDEST PUSH1 0x40 MLOAD PUSH2 0x70 SWAP5 SWAP4 SWAP3 SWAP2 SWAP1 PUSH2 0x440 JUMP JUMPDEST PUSH1 0x40 MLOAD DUP1 SWAP2 SUB SWAP1 RETURN JUMPDEST PUSH2 0x93 PUSH1 0x4 DUP1 CALLDATASIZE SUB DUP2 ADD SWAP1 PUSH2 0x8E SWAP2 SWAP1 PUSH2 0x5C1 JUMP JUMPDEST PUSH2 0x18D JUMP JUMPDEST STOP JUMPDEST PUSH2 0xAF PUSH1 0x4 DUP1 CALLDATASIZE SUB DUP2 ADD SWAP1 PUSH2 0xAA SWAP2 SWAP1 PUSH2 0x630 JUMP JUMPDEST PUSH2 0x250 JUMP JUMPDEST PUSH1 0x40 MLOAD PUSH2 0xBC SWAP2 SWAP1 PUSH2 0x679 JUMP JUMPDEST PUSH1 0x40 MLOAD DUP1 SWAP2 SUB SWAP1 RETURN JUMPDEST PUSH1 0x4 DUP2 DUP2 SLOAD DUP2 LT PUSH2 0xD5 JUMPI PUSH1 0x0 DUP1 REVERT JUMPDEST SWAP1 PUSH1 0x0 MSTORE PUSH1 0x20 PUSH1 0x0 KECCAK256 SWAP1 PUSH1 0x4 MUL ADD PUSH1 0x0 SWAP2 POP SWAP1 POP DUP1 PUSH1 0x0 ADD DUP1 SLOAD PUSH2 0xF8 SWAP1 PUSH2 0x6C3 JUMP JUMPDEST DUP1 PUSH1 0x1F ADD PUSH1 0x20 DUP1 SWAP2 DIV MUL PUSH1 0x20 ADD PUSH1 0x40 MLOAD SWAP1 DUP2 ADD PUSH1 0x40 MSTORE DUP1 SWAP3 SWAP2 SWAP1 DUP2 DUP2 MSTORE PUSH1 0x20 ADD DUP3 DUP1 SLOAD PUSH2 0x124 SWAP1 PUSH2 0x6C3 JUMP JUMPDEST DUP1 ISZERO PUSH2 0x171 JUMPI DUP1 PUSH1 0x1F LT PUSH2 0x146 JUMPI PUSH2 0x100 DUP1 DUP4 SLOAD DIV MUL DUP4 MSTORE SWAP2 PUSH1 0x20 ADD SWAP2 PUSH2 0x171 JUMP JUMPDEST DUP3 ADD SWAP2 SWAP1 PUSH1 0x0 MSTORE PUSH1 0x20 PUSH1 0x0 KECCAK256 SWAP1 JUMPDEST DUP2 SLOAD DUP2 MSTORE SWAP1 PUSH1 0x1 ADD SWAP1 PUSH1 0x20 ADD DUP1 DUP4 GT PUSH2 0x154 JUMPI DUP3 SWAP1 SUB PUSH1 0x1F AND DUP3 ADD SWAP2 JUMPDEST POP POP POP POP POP SWAP1 DUP1 PUSH1 0x1 ADD SLOAD SWAP1 DUP1 PUSH1 0x2 ADD SLOAD SWAP1 DUP1 PUSH1 0x3 ADD SLOAD SWAP1 POP DUP5 JUMP JUMPDEST PUSH1 0x0 DUP1 SLOAD DUP4 PUSH2 0x19C SWAP2 SWAP1 PUSH2 0x724 JUMP JUMPDEST SWAP1 POP PUSH1 0x4 PUSH1 0x40 MLOAD DUP1 PUSH1 0x80 ADD PUSH1 0x40 MSTORE DUP1 DUP7 DUP2 MSTORE PUSH1 0x20 ADD DUP5 DUP2 MSTORE PUSH1 0x20 ADD DUP6 DUP2 MSTORE PUSH1 0x20 ADD DUP4 DUP2 MSTORE POP SWAP1 DUP1 PUSH1 0x1 DUP2 SLOAD ADD DUP1 DUP3 SSTORE DUP1 SWAP2 POP POP PUSH1 0x1 SWAP1 SUB SWAP1 PUSH1 0x0 MSTORE PUSH1 0x20 PUSH1 0x0 KECCAK256 SWAP1 PUSH1 0x4 MUL ADD PUSH1 0x0 SWAP1 SWAP2 SWAP1 SWAP2 SWAP1 SWAP2 POP PUSH1 0x0 DUP3 ADD MLOAD DUP2 PUSH1 0x0 ADD SWAP1 DUP1 MLOAD SWAP1 PUSH1 0x20 ADD SWAP1 PUSH2 0x206 SWAP3 SWAP2 SWAP1 PUSH2 0x27E JUMP JUMPDEST POP PUSH1 0x20 DUP3 ADD MLOAD DUP2 PUSH1 0x1 ADD SSTORE PUSH1 0x40 DUP3 ADD MLOAD DUP2 PUSH1 0x2 ADD SSTORE PUSH1 0x60 DUP3 ADD MLOAD DUP2 PUSH1 0x3 ADD SSTORE POP POP DUP3 PUSH1 0x3 DUP6 PUSH1 0x40 MLOAD PUSH2 0x238 SWAP2 SWAP1 PUSH2 0x7BA JUMP JUMPDEST SWAP1 DUP2 MSTORE PUSH1 0x20 ADD PUSH1 0x40 MLOAD DUP1 SWAP2 SUB SWAP1 KECCAK256 DUP2 SWAP1 SSTORE POP POP POP POP POP JUMP JUMPDEST PUSH1 0x3 DUP2 DUP1 MLOAD PUSH1 0x20 DUP2 ADD DUP3 ADD DUP1 MLOAD DUP5 DUP3 MSTORE PUSH1 0x20 DUP4 ADD PUSH1 0x20 DUP6 ADD KECCAK256 DUP2 DUP4 MSTORE DUP1 SWAP6 POP POP POP POP POP POP PUSH1 0x0 SWAP2 POP SWAP1 POP SLOAD DUP2 JUMP JUMPDEST DUP3 DUP1 SLOAD PUSH2 0x28A SWAP1 PUSH2 0x6C3 JUMP JUMPDEST SWAP1 PUSH1 0x0 MSTORE PUSH1 0x20 PUSH1 0x0 KECCAK256 SWAP1 PUSH1 0x1F ADD PUSH1 0x20 SWAP1 DIV DUP2 ADD SWAP3 DUP3 PUSH2 0x2AC JUMPI PUSH1 0x0 DUP6 SSTORE PUSH2 0x2F3 JUMP JUMPDEST DUP3 PUSH1 0x1F LT PUSH2 0x2C5 JUMPI DUP1 MLOAD PUSH1 0xFF NOT AND DUP4 DUP1 ADD OR DUP6 SSTORE PUSH2 0x2F3 JUMP JUMPDEST DUP3 DUP1 ADD PUSH1 0x1 ADD DUP6 SSTORE DUP3 ISZERO PUSH2 0x2F3 JUMPI SWAP2 DUP3 ADD JUMPDEST DUP3 DUP2 GT ISZERO PUSH2 0x2F2 JUMPI DUP3 MLOAD DUP3 SSTORE SWAP2 PUSH1 0x20 ADD SWAP2 SWAP1 PUSH1 0x1 ADD SWAP1 PUSH2 0x2D7 JUMP JUMPDEST JUMPDEST POP SWAP1 POP PUSH2 0x300 SWAP2 SWAP1 PUSH2 0x304 JUMP JUMPDEST POP SWAP1 JUMP JUMPDEST JUMPDEST DUP1 DUP3 GT ISZERO PUSH2 0x31D JUMPI PUSH1 0x0 DUP2 PUSH1 0x0 SWAP1 SSTORE POP PUSH1 0x1 ADD PUSH2 0x305 JUMP JUMPDEST POP SWAP1 JUMP JUMPDEST PUSH1 0x0 PUSH1 0x40 MLOAD SWAP1 POP SWAP1 JUMP JUMPDEST PUSH1 0x0 DUP1 REVERT JUMPDEST PUSH1 0x0 DUP1 REVERT JUMPDEST PUSH1 0x0 DUP2 SWAP1 POP SWAP2 SWAP1 POP JUMP JUMPDEST PUSH2 0x348 DUP2 PUSH2 0x335 JUMP JUMPDEST DUP2 EQ PUSH2 0x353 JUMPI PUSH1 0x0 DUP1 REVERT JUMPDEST POP JUMP JUMPDEST PUSH1 0x0 DUP2 CALLDATALOAD SWAP1 POP PUSH2 0x365 DUP2 PUSH2 0x33F JUMP JUMPDEST SWAP3 SWAP2 POP POP JUMP JUMPDEST PUSH1 0x0 PUSH1 0x20 DUP3 DUP5 SUB SLT ISZERO PUSH2 0x381 JUMPI PUSH2 0x380 PUSH2 0x32B JUMP JUMPDEST JUMPDEST PUSH1 0x0 PUSH2 0x38F DUP5 DUP3 DUP6 ADD PUSH2 0x356 JUMP JUMPDEST SWAP2 POP POP SWAP3 SWAP2 POP POP JUMP JUMPDEST PUSH1 0x0 DUP2 MLOAD SWAP1 POP SWAP2 SWAP1 POP JUMP JUMPDEST PUSH1 0x0 DUP3 DUP3 MSTORE PUSH1 0x20 DUP3 ADD SWAP1 POP SWAP3 SWAP2 POP POP JUMP JUMPDEST PUSH1 0x0 JUMPDEST DUP4 DUP2 LT ISZERO PUSH2 0x3D2 JUMPI DUP1 DUP3 ADD MLOAD DUP2 DUP5 ADD MSTORE PUSH1 0x20 DUP2 ADD SWAP1 POP PUSH2 0x3B7 JUMP JUMPDEST DUP4 DUP2 GT ISZERO PUSH2 0x3E1 JUMPI PUSH1 0x0 DUP5 DUP5 ADD MSTORE JUMPDEST POP POP POP POP JUMP JUMPDEST PUSH1 0x0 PUSH1 0x1F NOT PUSH1 0x1F DUP4 ADD AND SWAP1 POP SWAP2 SWAP1 POP JUMP JUMPDEST PUSH1 0x0 PUSH2 0x403 DUP3 PUSH2 0x398 JUMP JUMPDEST PUSH2 0x40D DUP2 DUP6 PUSH2 0x3A3 JUMP JUMPDEST SWAP4 POP PUSH2 0x41D DUP2 DUP6 PUSH1 0x20 DUP7 ADD PUSH2 0x3B4 JUMP JUMPDEST PUSH2 0x426 DUP2 PUSH2 0x3E7 JUMP JUMPDEST DUP5 ADD SWAP2 POP POP SWAP3 SWAP2 POP POP JUMP JUMPDEST PUSH2 0x43A DUP2 PUSH2 0x335 JUMP JUMPDEST DUP3 MSTORE POP POP JUMP JUMPDEST PUSH1 0x0 PUSH1 0x80 DUP3 ADD SWAP1 POP DUP2 DUP2 SUB PUSH1 0x0 DUP4 ADD MSTORE PUSH2 0x45A DUP2 DUP8 PUSH2 0x3F8 JUMP JUMPDEST SWAP1 POP PUSH2 0x469 PUSH1 0x20 DUP4 ADD DUP7 PUSH2 0x431 JUMP JUMPDEST PUSH2 0x476 PUSH1 0x40 DUP4 ADD DUP6 PUSH2 0x431 JUMP JUMPDEST PUSH2 0x483 PUSH1 0x60 DUP4 ADD DUP5 PUSH2 0x431 JUMP JUMPDEST SWAP6 SWAP5 POP POP POP POP POP JUMP JUMPDEST PUSH1 0x0 DUP1 REVERT JUMPDEST PUSH1 0x0 DUP1 REVERT JUMPDEST PUSH32 0x4E487B7100000000000000000000000000000000000000000000000000000000 PUSH1 0x0 MSTORE PUSH1 0x41 PUSH1 0x4 MSTORE PUSH1 0x24 PUSH1 0x0 REVERT JUMPDEST PUSH2 0x4CE DUP3 PUSH2 0x3E7 JUMP JUMPDEST DUP2 ADD DUP2 DUP2 LT PUSH8 0xFFFFFFFFFFFFFFFF DUP3 GT OR ISZERO PUSH2 0x4ED JUMPI PUSH2 0x4EC PUSH2 0x496 JUMP JUMPDEST JUMPDEST DUP1 PUSH1 0x40 MSTORE POP POP POP JUMP JUMPDEST PUSH1 0x0 PUSH2 0x500 PUSH2 0x321 JUMP JUMPDEST SWAP1 POP PUSH2 0x50C DUP3 DUP3 PUSH2 0x4C5 JUMP JUMPDEST SWAP2 SWAP1 POP JUMP JUMPDEST PUSH1 0x0 PUSH8 0xFFFFFFFFFFFFFFFF DUP3 GT ISZERO PUSH2 0x52C JUMPI PUSH2 0x52B PUSH2 0x496 JUMP JUMPDEST JUMPDEST PUSH2 0x535 DUP3 PUSH2 0x3E7 JUMP JUMPDEST SWAP1 POP PUSH1 0x20 DUP2 ADD SWAP1 POP SWAP2 SWAP1 POP JUMP JUMPDEST DUP3 DUP2 DUP4 CALLDATACOPY PUSH1 0x0 DUP4 DUP4 ADD MSTORE POP POP POP JUMP JUMPDEST PUSH1 0x0 PUSH2 0x564 PUSH2 0x55F DUP5 PUSH2 0x511 JUMP JUMPDEST PUSH2 0x4F6 JUMP JUMPDEST SWAP1 POP DUP3 DUP2 MSTORE PUSH1 0x20 DUP2 ADD DUP5 DUP5 DUP5 ADD GT ISZERO PUSH2 0x580 JUMPI PUSH2 0x57F PUSH2 0x491 JUMP JUMPDEST JUMPDEST PUSH2 0x58B DUP5 DUP3 DUP6 PUSH2 0x542 JUMP JUMPDEST POP SWAP4 SWAP3 POP POP POP JUMP JUMPDEST PUSH1 0x0 DUP3 PUSH1 0x1F DUP4 ADD SLT PUSH2 0x5A8 JUMPI PUSH2 0x5A7 PUSH2 0x48C JUMP JUMPDEST JUMPDEST DUP2 CALLDATALOAD PUSH2 0x5B8 DUP5 DUP3 PUSH1 0x20 DUP7 ADD PUSH2 0x551 JUMP JUMPDEST SWAP2 POP POP SWAP3 SWAP2 POP POP JUMP JUMPDEST PUSH1 0x0 DUP1 PUSH1 0x0 PUSH1 0x60 DUP5 DUP7 SUB SLT ISZERO PUSH2 0x5DA JUMPI PUSH2 0x5D9 PUSH2 0x32B JUMP JUMPDEST JUMPDEST PUSH1 0x0 DUP5 ADD CALLDATALOAD PUSH8 0xFFFFFFFFFFFFFFFF DUP2 GT ISZERO PUSH2 0x5F8 JUMPI PUSH2 0x5F7 PUSH2 0x330 JUMP JUMPDEST JUMPDEST PUSH2 0x604 DUP7 DUP3 DUP8 ADD PUSH2 0x593 JUMP JUMPDEST SWAP4 POP POP PUSH1 0x20 PUSH2 0x615 DUP7 DUP3 DUP8 ADD PUSH2 0x356 JUMP JUMPDEST SWAP3 POP POP PUSH1 0x40 PUSH2 0x626 DUP7 DUP3 DUP8 ADD PUSH2 0x356 JUMP JUMPDEST SWAP2 POP POP SWAP3 POP SWAP3 POP SWAP3 JUMP JUMPDEST PUSH1 0x0 PUSH1 0x20 DUP3 DUP5 SUB SLT ISZERO PUSH2 0x646 JUMPI PUSH2 0x645 PUSH2 0x32B JUMP JUMPDEST JUMPDEST PUSH1 0x0 DUP3 ADD CALLDATALOAD PUSH8 0xFFFFFFFFFFFFFFFF DUP2 GT ISZERO PUSH2 0x664 JUMPI PUSH2 0x663 PUSH2 0x330 JUMP JUMPDEST JUMPDEST PUSH2 0x670 DUP5 DUP3 DUP6 ADD PUSH2 0x593 JUMP JUMPDEST SWAP2 POP POP SWAP3 SWAP2 POP POP JUMP JUMPDEST PUSH1 0x0 PUSH1 0x20 DUP3 ADD SWAP1 POP PUSH2 0x68E PUSH1 0x0 DUP4 ADD DUP5 PUSH2 0x431 JUMP JUMPDEST SWAP3 SWAP2 POP POP JUMP JUMPDEST PUSH32 0x4E487B7100000000000000000000000000000000000000000000000000000000 PUSH1 0x0 MSTORE PUSH1 0x22 PUSH1 0x4 MSTORE PUSH1 0x24 PUSH1 0x0 REVERT JUMPDEST PUSH1 0x0 PUSH1 0x2 DUP3 DIV SWAP1 POP PUSH1 0x1 DUP3 AND DUP1 PUSH2 0x6DB JUMPI PUSH1 0x7F DUP3 AND SWAP2 POP JUMPDEST PUSH1 0x20 DUP3 LT DUP2 EQ ISZERO PUSH2 0x6EF JUMPI PUSH2 0x6EE PUSH2 0x694 JUMP JUMPDEST JUMPDEST POP SWAP2 SWAP1 POP JUMP JUMPDEST PUSH32 0x4E487B7100000000000000000000000000000000000000000000000000000000 PUSH1 0x0 MSTORE PUSH1 0x11 PUSH1 0x4 MSTORE PUSH1 0x24 PUSH1 0x0 REVERT JUMPDEST PUSH1 0x0 PUSH2 0x72F DUP3 PUSH2 0x335 JUMP JUMPDEST SWAP2 POP PUSH2 0x73A DUP4 PUSH2 0x335 JUMP JUMPDEST SWAP3 POP DUP2 PUSH32 0xFFFFFFFFFFFFFFFFFFFFFFFFFFFFFFFFFFFFFFFFFFFFFFFFFFFFFFFFFFFFFFFF DIV DUP4 GT DUP3 ISZERO ISZERO AND ISZERO PUSH2 0x773 JUMPI PUSH2 0x772 PUSH2 0x6F5 JUMP JUMPDEST JUMPDEST DUP3 DUP3 MUL SWAP1 POP SWAP3 SWAP2 POP POP JUMP JUMPDEST PUSH1 0x0 DUP2 SWAP1 POP SWAP3 SWAP2 POP POP JUMP JUMPDEST PUSH1 0x0 PUSH2 0x794 DUP3 PUSH2 0x398 JUMP JUMPDEST PUSH2 0x79E DUP2 DUP6 PUSH2 0x77E JUMP JUMPDEST SWAP4 POP PUSH2 0x7AE DUP2 DUP6 PUSH1 0x20 DUP7 ADD PUSH2 0x3B4 JUMP JUMPDEST DUP1 DUP5 ADD SWAP2 POP POP SWAP3 SWAP2 POP POP JUMP JUMPDEST PUSH1 0x0 PUSH2 0x7C6 DUP3 DUP5 PUSH2 0x789 JUMP JUMPDEST SWAP2 POP DUP2 SWAP1 POP SWAP3 SWAP2 POP POP JUMP INVALID LOG2 PUSH5 0x6970667358 0x22 SLT KECCAK256 0xE7 CALLDATASIZE SLT 0xD2 0xDE PUSH11 0xFE0F770D1ED187D9420742 EXTCODESIZE SWAP11 PUSH24 0x57D6A573367E4670034E4A3E64736F6C6343000808003300 "
				},
				"gasEstimates": {
					"creation": {
						"codeDepositCost": "411000",
						"executionCost": "22555",
						"totalCost": "433555"
					},
					"external": {
						"addOrder(string,uint256,uint256)": "infinite",
						"combine(string)": "infinite",
						"person(uint256)": "infinite"
					}
				},
				"methodIdentifiers": {
					"addOrder(string,uint256,uint256)": "608c6b44",
					"combine(string)": "e8aab4d1",
					"person(uint256)": "092a1820"
				}
			},
			"storageLayout": {
				"storage": [
					{
						"astId": 4,
						"contract": "contracts/basic.sol:Farmer",
						"label": "rate",
						"offset": 0,
						"slot": "0",
						"type": "t_uint256"
					},
					{
						"astId": 6,
						"contract": "contracts/basic.sol:Farmer",
						"label": "order",
						"offset": 0,
						"slot": "1",
						"type": "t_uint256"
					},
					{
						"astId": 8,
						"contract": "contracts/basic.sol:Farmer",
						"label": "name",
						"offset": 0,
						"slot": "2",
						"type": "t_string_storage"
					},
					{
						"astId": 21,
						"contract": "contracts/basic.sol:Farmer",
						"label": "combine",
						"offset": 0,
						"slot": "3",
						"type": "t_mapping(t_string_memory_ptr,t_uint256)"
					},
					{
						"astId": 25,
						"contract": "contracts/basic.sol:Farmer",
						"label": "person",
						"offset": 0,
						"slot": "4",
						"type": "t_array(t_struct(details)17_storage)dyn_storage"
					}
				],
				"types": {
					"t_array(t_struct(details)17_storage)dyn_storage": {
						"base": "t_struct(details)17_storage",
						"encoding": "dynamic_array",
						"label": "struct Farmer.details[]",
						"numberOfBytes": "32"
					},
					"t_mapping(t_string_memory_ptr,t_uint256)": {
						"encoding": "mapping",
						"key": "t_string_memory_ptr",
						"label": "mapping(string => uint256)",
						"numberOfBytes": "32",
						"value": "t_uint256"
					},
					"t_string_memory_ptr": {
						"encoding": "bytes",
						"label": "string",
						"numberOfBytes": "32"
					},
					"t_string_storage": {
						"encoding": "bytes",
						"label": "string",
						"numberOfBytes": "32"
					},
					"t_struct(details)17_storage": {
						"encoding": "inplace",
						"label": "struct Farmer.details",
						"members": [
							{
								"astId": 10,
								"contract": "contracts/basic.sol:Farmer",
								"label": "name",
								"offset": 0,
								"slot": "0",
								"type": "t_string_storage"
							},
							{
								"astId": 12,
								"contract": "contracts/basic.sol:Farmer",
								"label": "phno",
								"offset": 0,
								"slot": "1",
								"type": "t_uint256"
							},
							{
								"astId": 14,
								"contract": "contracts/basic.sol:Farmer",
								"label": "order",
								"offset": 0,
								"slot": "2",
								"type": "t_uint256"
							},
							{
								"astId": 16,
								"contract": "contracts/basic.sol:Farmer",
								"label": "price",
								"offset": 0,
								"slot": "3",
								"type": "t_uint256"
							}
						],
						"numberOfBytes": "128"
					},
					"t_uint256": {
						"encoding": "inplace",
						"label": "uint256",
						"numberOfBytes": "32"
					}
				}
			},
			"userdoc": {
				"kind": "user",
				"methods": {},
				"version": 1
			}
		}
	}
}